:100000000C94600C0C94A90C0C94A90C0C94A90CE5
:100010000C94A90C0C94A90C0C94A90C0C94A90C8C
:100020000C94A90C0C94A90C0C94F0370C94C838BF
:100030000C9437320C94A90C0C94A90C0C94A90CB8
:100040000C94A90C0C94A90C0C94A90C0C94A90C5C
:100050000C94A90C0C94AA320C94A90C0C94A90C25
:100060000C94A90C0C94A90C0C94A90C0C94A90C3C
:100070000C94A90C0C94A90C0C94A90C0C94A90C2C
:100080000C94A90C0C94A90C0C94A90C0C94A90C1C
:100090000C94A90C0C94A90C0000000000000000B6
:1000A0000000000000000000000000000000000050
:1000B0000000000000000000000000000000000040
:1000C0000000000000000000000000000000000030
:1000D0000000804040202020201010101010080840
:1000E000040404083040800000000000000000000C
:1000F0000000000000000000000000000000000000
:1001000000000000000000000000000000000000EF
:10011000000000000080808000000000000000005F
:1001200000000000000000000000000000000000CF
:1001300000000000000000000000000000000000BF
:1001400000000000000000000018648202020202A9
:10015000020100000000808000000000000000009C
:10016000008000303000C0C1C1C2040810204080AF
:1001700000000080808080404040402020202010EF
:1001800010101008080808080404040404020202FD
:100190000201010101000000000000000000000059
:1001A000000000000000000000000000000000004F
:1001B000000000000000000000000000000000003F
:1001C0000000000000000000C03804030000000030
:1001D0000000000C0C0C0D010040A0212212111196
:1001E000110908080808040408081010101010115C
:1001F0000F010100000000000000000000000000EE
:1002000000000000000000000000000000000000EE
:1002100000000000000000000000000000000000DE
:1002200000000000000000000080808080804040CE
:1002300040404020202020201010101010080808F6
:10024000080804040404040203020201010101017C
:100250000102020404080808080807000000000062
:10026000000000000000000000000000000000008E
:10027000000000000000000000000000000000007E
:10028000000000000000000000000000000000006E
:10029000000000000000000000000000000000005E
:1002A000000000000000000000000000000000004E
:1002B000000000000000000000000000000000003E
:1002C000000000000000000000000000000000002E
:1002D000000080404020202020101010101008083E
:1002E000040404083040800000000000000000000A
:1002F00000000000000000000000000000000000FE
:1003000000000000000000000000000000000000ED
:10031000000000000080808000000000000000005D
:1003200000000000000000000000000000000000CD
:1003300000000000000000000000000000000000BD
:1003400000000000000000000018648202020202A7
:10035000020100000000808000000000000000009A
:10036000008000303000C0C1C1C2040810204080AD
:1003700000000080808080404040402020202010ED
:1003800010101008080808080404040404020202FB
:100390000201010101000000000000000000000057
:1003A000000000000000000000000000000000004D
:1003B000000000000000000000000000000000003D
:1003C0000000000000000000C0380403000000002E
:1003D0000000000C0C0C0D010040A0212212111194
:1003E000110908080808040408081010101010115A
:1003F0000F010100000000000000000000000000EC
:1004000000000000000000000000000000000000EC
:1004100000000000000000000000000000000000DC
:1004200000000000000000000080808080804040CC
:1004300040404020202020201010101010080808F4
:10044000080804040404040203020201010101017A
:100450000102020404080808080807000000000060
:10046000000000000000000000000000000000008C
:10047000000000000000000000000000000000007C
:10048000000000000000000000000000000000006C
:10049000000000000000000000000000000000005C
:1004A000000000000000000000000000000000004C
:1004B000000000000000000000000000000000003C
:1004C000000000000000000000000000000000002C
:1004D0000000008080404040402020202010080480
:1004E000020204186080000000000000000000000C
:1004F00000000000000000000000000000000000FC
:1005000000000000000000000000000000000000EB
:10051000000000000080808000000000000000005B
:1005200000000000000000000000000000000000CB
:1005300000000000000000000000000000000000BB
:100540000000000000000000003CC20101020204A3
:100550000402010000000000000000000000000094
:1005600000000060600081828284081020408000CA
:1005700000000080808080404040402020202010EB
:1005800010101008080808080404040404020202F9
:100590000201010101000000000000000000000055
:1005A000000000000000000000000000000000004B
:1005B000000000000000000000000000000000003B
:1005C000000000000000000080701906000000001C
:1005D0000000001818181B030040A0222414121257
:1005E000120B080808080505090910101010101151
:1005F0000F010100000000000000000000000000EA
:1006000000000000000000000000000000000000EA
:1006100000000000000000000000000000000000DA
:1006200000000000000000000080808080804040CA
:1006300040404020202020201010101010080808F2
:100640000808040404040402030202010101010178
:10065000010202040408080808080700000000005E
:10066000000000000000000000000000000000008A
:10067000000000000000000000000000000000007A
:10068000000000000000000000000000000000006A
:10069000000000000000000000000000000000005A
:1006A000000000000000000000000000000000004A
:1006B000000000000000000000000000000000003A
:1006C000000000000000000000000080800000002A
:1006D000000080404020202020101010100804024C
:1006E0000101020C3040800000000000000000000A
:1006F00000000000000000000000000000000000FA
:1007000000000000000000000000000000000000E9
:100710000000000000808080000000000000000059
:1007200000000000000000000000000000000000C9
:1007300000000000000000000000000000000000B9
:100740000000000000000000001EE10000010102A6
:100750000201000000008080000000000000000096
:10076000008000303000C0C1C1C2040810204080A9
:1007700000000080808080404040402020202010E9
:1007800010101008080808080404040404020202F7
:100790000201010101000000000000000000000053
:1007A0000000000000000000000000000000000049
:1007B0000000000000000000000000000000000039
:1007C000000000000000000080700C03000000002A
:1007D0000000000C0C0C0D010040A0212212111190
:1007E0001109080808080404080810101010101156
:1007F0000F010100000000000000000000000000E8
:1008000000000000000000000000000000000000E8
:1008100000000000000000000000000000000000D8
:1008200000000000000000000080808080804040C8
:1008300040404020202020201010101010080808F0
:100840000808040404040402030202010101010176
:10085000010202040408080808080700000000005C
:100860000000000000000000000000000000000088
:100870000000000000000000000000000000000078
:100880000000000000000000000000000000000068
:100890000000000000000000000000000000000058
:1008A0000000000000000000000000000000000048
:1008B0000000000000000000000000000000000038
:1008C0000000000000000000000000000000000028
:1008D0000000804040202020201010101008080444
:1008E0000202020438408000000000000000000006
:1008F00000000000000000000000000000000000F8
:1009000000000000000000000000000000000000E7
:100910000000000000808080000000000000000057
:1009200000000000000000000000000000000000C7
:1009300000000000000000000000000000000000B7
:100940000000000000000000001CE20101020202A1
:100950000201000000008080000000000000000094
:10096000008000303000C0C1C1C2040810204080A7
:1009700000000080808080404040402020202010E7
:1009800010101008080808080404040404020202F5
:100990000201010101000000000000000000000051
:1009A0000000000000000000000000000000000047
:1009B0000000000000000000000000000000000037
:1009C000000000000000000080700C030000000028
:1009D0000000000C0C0C0D010040A021221211118E
:1009E0001109080808080404080810101010101154
:1009F0000F010100000000000000000000000000E6
:100A000000000000000000000000000000000000E6
:100A100000000000000000000000000000000000D6
:100A200000000000000000000080808080804040C6
:100A300040404020202020201010101010080808EE
:100A40000808040404040402030202010101010174
:100A5000010202040408080808080700000000005A
:100A60000000000000000000000000000000000086
:100A70000000000000000000000000000000000076
:100A80000000000000000000000000000000000066
:100A90000000000000000000000000000000000056
:100AA0000000000000000000000000000000000046
:100AB0000000000000000000000000000000000036
:100AC0000000000000000000000000808000000026
:100AD0000000804040202020201010101008040248
:100AE0000101020C30408000000000000000000006
:100AF00000000000000000000000000000000000F6
:100B000000000000000000000000000000000000E5
:100B10000000000000808080000000000000000055
:100B200000000000000000000000000000000000C5
:100B300000000000000000000000000000000000B5
:100B40000000000000000000001EE10000010102A2
:100B50000281808000008080000000000000000012
:100B60000080003030000001E11A06093135018AA9
:100B70007C00008080808040404040202020201069
:100B800010101008080808080404040404020202F3
:100B9000020101010100000000000000000000004F
:100BA0000000000000000000000000000000000045
:100BB0000000000000000000000000000000000035
:100BC000000000000000000080700C030000180608
:100BD00005989984C37C4141404020212212111183
:100BE00011090808080804040404040402020201AC
:100BF00001010100000000000000000000000000F2
:100C000000000000000000000000000000000000E4
:100C100000000000000000000000000000000000D4
:100C200000000000000000000080808080804040C4
:100C300040404020202020201010101010080808EC
:100C40000808040404040402030202010101010172
:100C50000100000000000000000000000000000093
:100C60000000000000000000000000000000000084
:100C70000000000000000000000000000000000074
:100C80000000000000000000000000000000000064
:100C90000000000000000000000000000000000054
:100CA0000000000000000000000000000000000044
:100CB0000000000000000000000000000000000034
:100CC0000000000000000000000000808000000024
:100CD0000000804040202020201010101008040246
:100CE0000101020C30408000000000000000F8F814
:100CF000F8F8000000000080800000000000000004
:100D000000000000000000000000000000000000E3
:100D10000000000000808080000000000000000053
:100D200000000000000000000000000000000000C3
:100D300000000000000000000000000000000000B3
:100D40000000000000000000001EE10000010102A0
:100D50000281808000008080000000000000000010
:100D60000080003030000001010204081020438799
:100D7000070100B8BCBE9F5F5F4F4C2020202010B1
:100D800010101008080808080404040404020202F1
:100D9000020101010100000000000000000000004D
:100DA0000000000000000000000000000000000043
:100DB0000000000000000000000000000000000033
:100DC000000000000000000080700C030000180606
:100DD00005989984437C4141404020212212111101
:100DE0001109080808080404080810101010101150
:100DF0000F013D7CFCFCFCFCFC3C0C0000000000F6
:100E000000000000000000000000000000000000E2
:100E100000000000000000000000000000000000D2
:100E200000000000000000000080808080804040C2
:100E300040404020202020201010101010080808EA
:100E40000808040404040402030202010101010170
:100E50000100000000000000000000000000000091
:100E60000000000000000000000000000000000082
:100E7000000000000001030300000000000000006B
:100E80000000000000000000000000000000000062
:100E90000000000000000000000000000000000052
:100EA0000000000000000000000000000000000042
:100EB0000000000000000000000000000000000032
:100EC0000000000000000000000000808000000022
:100ED0000000804040202020201010101008040244
:100EE0000101020C30408000000000000000000002
:100EF00000000000000000000000000000000000F2
:100F000000000000000000000000000000000000E1
:100F10000000000000808080000000000000000051
:100F200000000000000000000000000000000000C1
:100F300000000000000000000000000000000000B1
:100F40000000000000000000001EE100000101029E
:100F5000020100000000808000000000000000008E
:100F60000080003030000001E11A06093135018AA5
:100F70007C00008080808040404040202020201065
:100F800010101008080808080404040404020202EF
:100F9000020101010100000000000000000000004B
:100FA0000000000000000000000000000000000041
:100FB0000000000000000000000000000000000031
:100FC000000000000000000080700C030000000022
:100FD00000000000000001010040A02122121111B8
:100FE00011090808080804040404040402020201A8
:100FF00001010100000000000000000000000000EE
:1010000000000000000000000000000000000000E0
:1010100000000000000000000000000000000000D0
:1010200000000000000000000080808080804040C0
:1010300040404020202020201010101010080808E8
:101040000808040404040402037A7A797979793966
:101050003102020404080808888887800000000024
:101060000000000000000000000000000000000080
:101070000000000000000000000000000000000070
:101080000000000000000000000000000000000060
:10109000000000000000000029003A003B003C0076
:1010A0003D003E003F00400041004200430044003C
:1010B0004500A80035001E001F002000210022006E
:1010C000230024002500260027002D002E002A00E2
:1010D0002B0014001A000800150017001C0018004F
:1010E0000C00120013002F00300031003900040002
:1010F0001600070009000A000B000D000E000F008B
:101100003300340028004900E1001D001B000600E8
:101110001900050011001000360037003800E50006
:1011200052004C00E000E300DF5C000000002C00F7
:101130000000000065000151E400500051004F0024
:101140000100010001000100010001000100010097
:101150000100010001000100010001000100010087
:101160000100010001000100010001000100010077
:101170000100010001000100010001000100010067
:101180000100010001000100010001000100010057
:101190000100010001000100010001000100010047
:1011A0000100010001000100010001000100010037
:1011B0000100010001000100010001000100010027
:1011C00001000100460001000100010001000100D2
:1011D000010000000000010000000000010001000B
:1011E000010001000100010044454255473A2064D6
:1011F000697361626C65642E0A0044454255473A42
:1012000020656E61626C65642E0A000A002530312B
:101210003662003A200025303258000A722F6320CF
:10122000303132333435363738394142434445461C
:101230000A00290A002575002F002575005D280089
:10124000256400200025640020002564002000257E
:1012500064007C0025303258006D6F7573656B65D6
:1012600079205B62746E7C782079207620685D2816
:101270007265702F61636C293A205B006C65642095
:101280006D6174726978207365742076616C205B7F
:1012900025735D3A2025750A006C6564206D6174C4
:1012A000726978206D6F6465205B25735D3A202537
:1012B000750A006C6564206D617472697820746FC2
:1012C00067676C65205B25735D3A206C65645F6DB4
:1012D00061747269785F6565636F6E6669672E65B4
:1012E0006E61626C65203D2025750A006C65645F47
:1012F0006D61747269785F696E69745F6472697632
:10130000657273206C65645F6D61747269785F6586
:1013100065636F6E6669672E6D6F6465203D203072
:101320002E2057726974652064656661756C74203F
:1013300076616C75657320746F20454550524F4D32
:101340002E0A006C65645F6D61747269785F696E06
:1013500069745F64726976657273206565636F6E28
:10136000666967206973206E6F7420656E61626CB8
:1013700065642E0A006C65645F6D61747269785FE4
:101380006565636F6E6669672E666C616773203D85
:101390002025640A006C65645F6D61747269785F12
:1013A0006565636F6E6669672E7370656564203D61
:1013B0002025640A006C65645F6D61747269785FF2
:1013C0006565636F6E6669672E76616C203D2025CA
:1013D000640A006C65645F6D61747269785F65654D
:1013E000636F6E6669672E6D6F6465203D202564AE
:1013F0000A006C65645F6D61747269785F6565632E
:101400006F6E6669672E656E61626C65203D202592
:10141000640A006C65645F6D61747269785F65650C
:10142000636F6E66696720454550524F4D0A0065EF
:1014300065636F6E6669675F7570646174655F6C24
:1014400065645F6D61747269785F64656661756C0F
:10145000740A0000010101010101010101020202FF
:101460000202020202020303030303030303040450
:10147000040404040405050505050606060606071A
:101480000707070708080808090909090A0A0A0BD3
:101490000B0B0C0C0C0D0D0D0E0E0E0F0F0F101074
:1014A00011111112121313141415151616171718FB
:1014B0001819191A1A1B1B1C1D1D1E1E1F20202166
:1014C0002222232424252626272829292A2B2C2DAD
:1014D0002D2E2F30313232333435363738393A3BCE
:1014E0003C3D3E3F404142434445464748494A4CC3
:1014F0004D4E4F50515354555658595A5B5D5E5F8F
:10150000616264656668696B6C6D6F707273757724
:10151000787A7B7D7E8082838587888A8C8E8F9186
:10152000939596989A9C9EA0A2A3A5A7A9ABADAFB0
:10153000B1B3B5B7BABCBEC0C2C4C6C9CBCDCFD19A
:10154000D4D6D8DBDDDFE2E4E7E9EBEEF0F3F5F843
:10155000FAFDFF6F6C65645F6F666620636D6420E3
:101560006661696C65640A0000AE6F6C65645F6FEC
:101570006E20636D64206661696C65640A0000AF6B
:101580006F6C65645F72656E64657239302064618A
:101590007461206661696C65640A006F6C65645FE4
:1015A00072656E6465722064617461206661696C45
:1015B00065640A006F6C65645F72656E64657220B5
:1015C0006F666673657420636F6D6D616E6420660F
:1015D00061696C65640A00646973706C61795F733A
:1015E0006574757032206661696C65640A0000DAA2
:1015F0000281FFD9F1DB20A4A62EAF646973706C61
:1016000061795F666C6970706564206661696C659C
:10161000640A0000A0C06F6C65645F696E69742025
:10162000636D64206E6F726D616C20726F74617493
:10163000696F6E206661696C65640A0000A1C86FFD
:101640006C65645F696E697420636D642073657492
:101650002031206661696C65640A0000AED580A8FF
:101660001FD300408D1420000A002530325820007E
:101670006B6579626F6172645F7265706F72743AE4
:1016800020000A0025303258006B6579626F617264
:10169000645F7365745F6C65643A20004F6E6573B8
:1016A000686F743A206163746976653A2025640A2C
:1016B0000064656C5F6B65795F6269743A20636191
:1016C0006E27742064656C3A20253032580A006118
:1016D00064645F6B65795F6269743A2063616E2749
:1016E00074206164643A20253032580A005B735DCF
:1016F000004B6579626F6172642073746172742E3D
:101700000A005B575D005B535D005B525D005B440C
:101710005D005B435D0012035600650072007300BC
:1017200069006F006E00300000000A03570061007E
:101730007600650000000403090409025B00030150
:1017400000A0FA09040000010301010009211101B0
:1017500000012240000705810308000A0904010076
:10176000010300000009211101000122B600070554
:10177000820320000A09040200020300000009217C
:101780001101000122220007058303200001070543
:1017900003032000011201100100000008000000F6
:1017A000000000010200010631FF0974A101097562
:1017B000150026FF00952075088102097615002680
:1017C000FF00952075089102C005010902A101855D
:1017D000020901A100050919012908150025019533
:1017E00008750181020501093009311581257F95B0
:1017F000027508810609381581257F9501750881D4
:1018000006050C0A38021581257F950175088106A9
:10181000C0C005010980A101850319012AB700157F
:101820000126B700950175108100C0050C0901A1C2
:1018300001850419012AA002150126A0029501754F
:10184000108100C005010906A1018505050719E001
:1018500029E7150025019508750181020507190082
:1018600029EF1500250195F0750181020508190180
:101870002905950575019102950175039101C00532
:10188000010906A101050719E029E71500250195C1
:101890000875018102950175088101050719002964
:1018A000FF150026FF00950675088100050819013F
:1018B0002905950575019102950175039101C000F7
:1018C00011241FBECFEFD0E2DEBFCDBF04B603FEB2
:1018D00027C08091ED079091EE07A091EF07B0919E
:1018E000F0078730904BA740B04BD1F41092ED0732
:1018F0001092EE071092EF071092F00714BE84B713
:10190000877F84BF0FB6F894A895809160008861A6
:1019100080936000109260000FBEE0E0F0EF099548
:1019200013E0A0E0B1E0E6E3FAE700E00BBF02C09D
:1019300007900D92A039B107D9F727E0A0E9B3E0ED
:1019400001C01D92AD3EB207E1F70E9424350C9410
:10195000E43C0C940000FF93EF93E0919003F0912E
:101960009103309709F00995EF91FF910895FC01DB
:101970008591803011F0EFDFFBCF0895FF27E0E283
:1019800030E247FF0CC0419597FF09C0EDE260953A
:10199000709580959095611D711D811D911D27FF8A
:1019A00002C0219530E350E2AA27660F771F881FF7
:1019B000991FAA1FA41710F0A41B63955A95A9F7A5
:1019C000AA3008F0A95FA05DAF93F395611571058A
:1019D0008105910541F7ED3211F4EF93F395F2177C
:1019E00018F43F93F395FBCF8F91B5DFFA95E1F7AC
:1019F0000895E991F9918591803021F0853219F0AF
:101A0000AADFF9CF089520E0E89455915532C1F34B
:101A1000503311F4689455915A3348F4505390F36D
:101A2000220F022E220F220F200D250FF4CF0EF4CD
:101A3000219589919991533619F3533729F15335EB
:101A400059F1BC0188279927E8945C3621F48991E3
:101A5000999168945591543639F446EF7EF077FFAA
:101A60000DC08FEF9FEF0AC055374AE039F0583567
:101A700040E121F0523642E009F00895FF93EF93E0
:101A80007DDFEF91FF91B7CFFF93EF93FC01819141
:101A90008030B9F360DFFBCFFF93EF9368DFF1CFC6
:101AA000DF93CF93CDB7DEB72596A3DFCF91DF913C
:101AB00008950E94051E8F31C8F48091930390E031
:101AC000019665E070E00E94343C8093930324E02B
:101AD00030E0A901481B590BCA01982F8827990F9C
:101AE00060E072E088569F4F0E94D81F0E94051E3A
:101AF0008F3150F00E94051E883230F460E072E0B1
:101B000088E99AE00E94D81F0E94051E8832B0F032
:101B10002091920330E02F5F3F4F217033272093B5
:101B2000920381E090E0821B930B982F8827990FF6
:101B300060E072E08856934F0C94D81F08950E947D
:101B4000051E882341F10E9418206091980370912E
:101B5000990380919A0390919B030E948E32693C75
:101B600071058105910560F00E94733260939803BE
:101B70007093990380939A0390939B030E94590D4D
:101B80000E9473326093940370939503809396033D
:101B900090939703089560919403709195038091B9
:101BA0009603909197030E948E32613C7742894060
:101BB000910510F00C94582160919803709199034D
:101BC00080919A0390919B030E948E32693C71052B
:101BD0008105910560F00E947332609398037093C1
:101BE000990380939A0390939B030E94590D089543
:101BF000811108C089EA611101C08AEA0E9459274F
:101C000081E008958130E1F789EF6111F7CF8AEF24
:101C1000F5CFCF93C82F0E947B25882319F08C2FF6
:101C2000CF91089582E0FCCF0E947B250C949F0DFC
:101C300081E0089581E008950C941A0E08950C94A3
:101C40001E0E1F93CF93DF9300D000D00F92CDB71D
:101C5000DEB749835A836B8330911A0489819A8154
:101C600031111DC06623B9F02223A9F00E94C82EAD
:101C7000182F682F89819A810E94742E69817A8138
:101C8000812F0F900F900F900F900F90DF91CF91B9
:101C90001F910C94480F0E94A02E182FEFCF0E9486
:101CA000C82E69817A81EDCFFC01262F40815181B8
:101CB0006281738184810C94210ECF93DF93EC01B8
:101CC00060E00E94540EBE01DF91CF910C941F0E74
:101CD0000E946B110E94370F0E94711B0C9490118F
:101CE0000E949F1A0E94821E0C94931108950E94D4
:101CF000DE290E94760E2FEF84E39CE02150804085
:101D00009040E1F700C000000C94CE320F931F9377
:101D1000CF93DF938C0161E00E94540EEC01F80137
:101D20008281882319F0CE010E94311EB801CE01B4
:101D30000E941C0E8823F1F1B801CE010E9400160A
:101D40008823C1F1B801CE010E940F22882391F1AE
:101D5000B801CE010E946122882361F1B801CE0151
:101D60000E948423882331F1F8018281882361F065
:101D7000CF3DFCE5DF07B1F170F4C115ECE5DE07FE
:101D8000B9F0C130DC45E1F0C801DF91CF911F917E
:101D90000F910C94180ECC358DE5D80749F1CD354F
:101DA000DC0719F1CB35DD4579F70E948B2FECCF9D
:101DB0000E94770E80E0DF91CF911F910F910895DF
:101DC0009091B704892F8E7F90FF81608093B70434
:101DD00080FF05C08AEF91E10E94B70CEBCF88EE3F
:101DE00091E1FACF0E94F930E5CF0E94822FCCCF4B
:101DF0000E948E2FC9CF829590E09C01220F331F45
:101E0000220F331F2C7C9595879595958795837325
:101E1000282B30E0C901880F991F8A7A35952795BC
:101E20002575822B0895CF93DF93D92F0E94FB0E47
:101E3000C82F8D2F0E94FB0E9C2FDF91CF9108950C
:101E400008950C94200F81E00895CF93C82F0E942D
:101E5000230F882331F0C0FF06C0589AC1FF05C088
:101E6000599ACF9108955898F9CF5998FACF509A26
:101E70005898519A59980895CF93C82F0E94210FCE
:101E80008C2FCF910C94250F90E080E00895089559
:101E9000972F70E02EE0929F600D711D1124FB01C1
:101EA00094E5899FE00DF11D1124EE0FFF1FE85608
:101EB000FF4E859194910895FC01EE0FFF1FE55FA1
:101EC000FD4E859194910895CF93DF930E94480F22
:101ED0000E947910EC01811520E5920708F042C0BC
:101EE000811530E4930708F0BDC0883E910528F5C0
:101EF000803E910508F09DC0883A910588F4853AA6
:101F0000910508F08FC08130910509F492C00097C7
:101F100009F48FC0049708F08CC0D0E0C0E089C0FD
:101F20008F3B910508F489C0805C9109C03CD105C4
:101F3000A0F30E945C0FEC017CC08115904250F42C
:101F4000C11581E0D80708F074C0CD3ED10528F353
:101F5000D0656FC0C11590E3D90708F079C0CE01F4
:101F60009F70E7CF811525E5920758F5811534E577
:101F7000930708F0A6C0811542E5940750F4C115F7
:101F800081E5D80708F471C0DC2FCC27C16FD06A77
:101F900050C0982F969596959E0123703327C115B2
:101FA000D34508F07FC0C1E0D0E002C0CC0FDD1FF8
:101FB0002A95E2F720E2929FC0011124C82BD92B69
:101FC0006FC0C11589E5D807A8F4C11598E5D907F0
:101FD00008F07CC0C11526E5D20708F09ECF8C2FF3
:101FE0000E941011C82FD0E0DC2FCC27CC27DF7146
:101FF000D0621FC0C1153AE5D30708F46CC0CE010A
:1020000090568115904208F088CF8D2F8F710E94D5
:10201000101190E0982F882788279F719C012C2B06
:10202000E901E6CFC55AD0E0C95FDC4FC881D0E0F6
:10203000D064CE01DF91CF910895C85AD0E0CC0F83
:10204000DD1FC752DD4F0990D881C02DD464F1CF78
:10205000CE019927D3FF03C0EC01D86CEACFEC0185
:10206000D06CE7CFDF70D06AE4CFCE01E4E0969584
:102070008795EA95E1F783702C2F26952695237096
:1020800090E2299F90011124382B8C2F8370C1E09E
:10209000D0E002C0CC0FDD1F8A95E2F7C22BD32B14
:1020A000DC68C7CFC1E0D0E002C0CC0FDD1F2A95AD
:1020B000E2F730E2939FC0011124C82BD92BDA68D4
:1020C000B8CFD82FCC27C46FD06AB3CFDC2FCC27A2
:1020D000C06FD06AAECF8C2F8F700E94101134E089
:1020E000D695C7953A95E1F7CF709C2FEC01D06952
:1020F000A0CF82389105B1F1B0F48133910509F494
:1021000075C048F48932910509F469C08A32910595
:1021100009F473C008958533910509F459C08933D2
:10212000910501F10895833E9105A9F138F4803EAF
:102130009105F9F0823E910549F10895863E910599
:10214000A9F1873E9105C9F1843E910519F52091C9
:10215000DF0421FF1FC08091DE0484FD14C087EEE0
:1021600090E008952091DE042370A1F080EE90E0CD
:1021700008952091DE0420FD47C03091DF0430FF38
:1021800009C024FF44C090E080E004C02091DE0438
:1021900022FDF7CF08952091DE0422FD3BC030914F
:1021A000DF0430FDE3CF24FFF5CFEDCF2091DE0437
:1021B00023FFF0CF24FDE7CFD2CF2091DE0423FD13
:1021C0002CC03091DF0431FFEECF84EE90E0089513
:1021D0002091DE0425FFDECF89E290E00895209172
:1021E000DE0425FFD7CF85E390E008952091DE043B
:1021F00026FFD0CF8AE290E008952091DE0426FFEA
:10220000C9CF81E390E0089589E390E0089583EEDB
:1022100090E0089582EE90E0089586EE90E00895B3
:102220009091DE0492FF06C0282F28712830F9F41F
:10223000877F846093FF06C0282F28712831F1F42E
:10224000877E84612091DF0420FF06C0382F38711B
:102250003830D9F4877F816021FF06C0282F28718C
:102260002831D1F4877E816194FD877E0895282FDF
:1022700024712430F9F68B7F8860DCCF282F2471FD
:10228000243101F78B7E8861DDCF382F31713130F9
:1022900019F78E7F8860E0CF282F2171213121F737
:1022A0008E7E8861E1CF0C944E300E9439128FEB04
:1022B0009DE50197F1F700C000000E94391280E00F
:1022C0000E94951180FF04C00E9453110C94CE32DD
:1022D00008950C9455110E945430811102C00E943F
:1022E000F9300E945F308093B7040E94673090936A
:1022F000DF048093DE040E9469110E946330682F1E
:1023000070E090E080E00E94762D60918A047091E8
:102310008B0480918C0490918D040C94B02D0895C1
:102320000C948F1108950C949211E82FF0E0EE0FA9
:10233000FF1FE451FB4F808191810895CF92DF927E
:10234000EF92FF920F931F93CF93DF938BE192E174
:102350000E94B70C8CEEE82E84E0F82ED0E0C0E0AE
:1023600096E1C92E92E1D92E0DE012E1DF93CF93D1
:10237000DF92CF920E94500D83E192E10E94B70C50
:10238000F701819191917F010E94130F9F938F9389
:102390001F930F930E94500D8BE092E10E94B70CA7
:1023A00021968DB79EB708960FB6F8949EBF0FBEC4
:1023B0008DBFC630D105D1F6DF91CF911F910F911E
:1023C000FF90EF90DF90CF90089580EA8A95F1F723
:1023D000089500C008950C94E511F894E82FE29553
:1023E000EF70F0E031A1282F2F7081E090E001C064
:1023F000880F2A95EAF7982F9095932391A392A19D
:10240000892B82A3789408950F931F93CF93DF9322
:1024100086E00E94ED1187E00E94ED1187E60E94A0
:10242000ED1186E60E94ED1185E60E94ED1184E62D
:102430000E94ED11CAE0D3E008E113E089910E9407
:10244000ED110C171D07D1F7E0EEF4E0ACEEB4E0AF
:10245000119211921D921D9284E0EC3EF807C1F793
:1024600086E00E94B912DF91CF911F910F910C94D9
:10247000680EAF92BF92DF92EF92FF920F931F937D
:10248000CF93DF93C8E1D3E000EE14E0D12CEE242B
:10249000E394F12C8991F894E82FE295EF70F0E045
:1024A00021A18F70A70102C0440F551F8A95E2F742
:1024B000CA01922F982B91A392A18095892382A380
:1024C00078940E94E911EAE0F3E030E020E0B12CDA
:1024D000A12C4191A42FA295AF70B0E090968C9161
:1024E00090E04F7002C0959587954A95E2F780FD80
:1024F0003BC0C701022E02C0880F991F0A94E2F761
:10250000A82AB92A2F5F3F4F2E30310511F7FE015F
:10251000319780810E94ED110E94EB11F8018081BA
:102520009181A816B90619F1B182A08281E0D82A5A
:102530000E5F1F4FF3E0CE31DF0709F0ABCF2D2D3B
:1025400046E06CEE74E080EE94E00E94BA120E94C5
:10255000700E8D2DDF91CF911F910F91FF90EF9015
:10256000DF90BF90AF90089590E080E0C9CF80E009
:10257000DECF0895FF920F931F93CF93DF93F82E32
:10258000092F162FD72FC42F222349F081E08093E3
:102590009E030E94673290939D0380939C038091D9
:1025A0009E038823A1F080919C0390919D030E943B
:1025B0007F32049760F0EF2DF02FA12FBD2F90E018
:1025C00080E0D0E08C179D0744F010929E03DF91CD
:1025D000CF911F910F91FF900895219131912D93EB
:1025E0003D930196EFCF8091A50380FF12C06091CB
:1025F0002E0285E0689FB001112475956795759549
:10260000679560387105A8F561157105A1F1862FF0
:10261000089581FF09C060912E0285E0689FB00196
:10262000112475956795EDCF60912E0282FD0AC049
:102630008091A4038823D1F090912D0260912E0205
:10264000891728F085E0689FB0011124DACF869FB2
:10265000B001112485E0869F9001879F300D1124E1
:10266000692F70E0C9010E94343CCBCF65E070E077
:10267000CECF8FE7089581E008958091A50380FF74
:102680000CC060912A0270E0759567957595679505
:102690006115710549F1862F089581FF06C060918B
:1026A0002A0270E075956795F3CF60912A0282FD4A
:1026B0000BC09091A3039923A1F06091290280910E
:1026C0002A02961738F0682F70E06038710500F321
:1026D0008FE70895899FC001112470E00E94343C67
:1026E000F4CF61E070E0D7CF81E008958D3E31F402
:1026F0000E94F31281958093A90308958E3E19F4E8
:102700000E94F312F8CF8F3E31F40E94F3128195AC
:102710008093A8030895803F19F40E94F312F8CF24
:10272000893F29F40E943D138093AA0308958A3FAC
:1027300021F40E943D138195F7CF8B3F31F40E9425
:102740003D1381958093AB0308958C3F19F40E944B
:102750003D13F8CF9FE0980F983070F4815F990B8C
:1027600021E030E001C0220F8A95EAF78091A703AB
:10277000822B8093A70308958D3F31F48091A503A8
:1027800081608093A50308958E3F21F48091A50375
:102790008260F7CF8F3FB9F78091A5038460F1CFB6
:1027A0004091A8038D3E59F48091A90387FF0DC085
:1027B0001092A90341110BC01092A40308C08E3ED1
:1027C00081F48091A90318169CF3442381F0809131
:1027D000AA039091AB03892B09F05AC01092A3036E
:1027E00008958F3E49F447FFF0CF1092A8038091DF
:1027F000A9038111ECCFE0CF803F19F41416ACF39C
:10280000E4CF9091AA03893F29F41916F4F61092A7
:10281000AA03DBCF8A3F19F497FFD7CFF8CF909167
:10282000AB038B3F29F497FFD0CF1092AB03CDCFF2
:102830008C3F19F41916CCF3C8CF9FE0980F98304D
:1028400090F4815F990B21E030E0B90102C0660F7E
:10285000771F8A95E2F7CB0180959091A703892392
:102860008093A703B2CF8D3F31F48091A5038E7F73
:102870008093A503AACF8E3F21F48091A5038D7F7D
:10288000F7CF8F3F09F0A1CF8091A5038B7FF0CFC9
:1028900008958091B70483FF7EC089E592E10E948C
:1028A000B70C8091A7031F928F9384E592E19F93C9
:1028B0008F930E94500D82E592E10E94B70C8091A7
:1028C000A803282F082E000C330B3F938F938FE41F
:1028D00092E19F938F930E94500D8DE492E10E94AC
:1028E000B70C8091A903282F082E000C330B3F93BF
:1028F0008F938AE492E19F938F930E94500D88E416
:1029000092E10E94B70C8091AA03282F082E000C98
:10291000330B3F938F9385E492E19F938F930E94B3
:10292000500D83E492E10E94B70C8091AB03282FF5
:10293000082E000C330B3F938F9380E492E19F931A
:102940008F930E94500D8DE392E10E94B70C80910D
:10295000A4031F928F938AE392E19F938F930E9427
:10296000500D88E392E10E94B70C8091A5031F925D
:102970008F9385E392E19F938F930E94500D82E3A2
:1029800092E10E94B70C8DB79EB74C960FB6F894A3
:102990009EBF0FBE8DBF0E9467329C019091A8031D
:1029A0008091A903982B21F03093A2032093A103D7
:1029B0009091AA038091AB03982B21F03093A00350
:1029C00020939F0386EA93E00C940325EF92FF92F5
:1029D0000F931F93CF93DF9300D000D000D0CDB7DB
:1029E000DEB786E0E6EAF3E0DE01119601900D9293
:1029F0008A95E1F7E090A803F090A9030091AA035B
:102A00001091AB031092A8031092A9031092AA038D
:102A10001092AB038E2D8F2991F08091A10390919C
:102A2000A2030E947F32AC019091A403992309F480
:102A30003FC080912F028417150608F447C0802FED
:102A4000812B91F080919F039091A0030E947F328F
:102A5000AC019091A303992309F477C080912B02D4
:102A60008417150608F47FC08091A8039091A903EC
:102A7000892B9091AA03892B9091AB03892B11F09C
:102A80000E94491486E0FE013196A6EAB3E0019067
:102A90000D928A95E1F726960FB6F894DEBF0FBE29
:102AA000CDBFDF91CF911F910F91FF90EF900895CF
:102AB000209130028AE0289F9001112424173507C5
:102AC00008F0BDCF9F5F9093A40302C09F3FD1F752
:102AD000EE2059F00E94F3129FEF1E140CF491E0C7
:102AE000899F802D11248093A803FF2059F00E9414
:102AF000F3129FEF1F140CF491E0899F802D112495
:102B00008093A9033091A803332309F498CF20912F
:102B1000A903222309F493CF45EB3403C001112408
:102B2000992359F09093A80345EB240390011124B5
:102B3000332339F03093A90382CF81E08093A80337
:102B4000F3CF81E08093A9037ACF20912C028AE011
:102B5000289F900111242417350708F085CF9F5F27
:102B60009093A30302C09F3FD1F7002359F00E9426
:102B70003D139FEF10160CF491E0899F802D1124D6
:102B80008093AA03112359F00E943D139FEF111661
:102B90000CF491E0899F802D11248093AB03309138
:102BA000AA03332309F460CF2091AB03222309F455
:102BB0005BCF45EB3403C0011124992359F0909366
:102BC000AA0345EB240390011124332339F03093F9
:102BD000AB034ACF81E08093AA03F3CF81E08093D7
:102BE000AB0342CF86E0E6EAF3E0DF011D928A956F
:102BF000E9F71092A4031092A3031092A50308957D
:102C00009C01FB018281882349F12E3BFCE53F07B3
:102C1000C9F040F42C3BECE53E0769F02D3B3C4508
:102C200071F00895203C9CE5390791F070F0213C4B
:102C30003C4589F008950E94DD1B80E008950E94C4
:102C4000ED1BFBCF0E94781CF8CF0E946B1CF5CFC8
:102C50000E94CD1BF2CF0E94351CEFCF81E008957A
:102C600030E020E0869F212D969F200D311D1124FC
:102C7000C9010895E82F86FDE0952E2F2F7086FD5F
:102C80002F5FE695E695E695E670F0E0E95DFC4F8E
:102C90009181929F902D212D112492959F702295C4
:102CA000207F922B2081920F87FD919580E8890FDC
:102CB0000895E62FF0E0EE0FFF1FEC5AFE4F208143
:102CC00034EE239F212D1124682F70E030E0245E24
:102CD0003F4F241B310937FF03C03195219531093E
:102CE00093E0220F331F9A95E1F7AB01421B530B80
:102CF0009A0157FD20E0582F259F212D1124822F66
:102D00000895E62FF0E0EE0FFF1FEC5AFE4F2081F2
:102D1000241B382F239F212D1124822F0895E62F65
:102D2000F0E0EE0FFF1FEB5AFE4F2081241B382FDF
:102D3000239F212D1124822F08950F9393E0299F23
:102D40009001112435952795020F282F029F012D00
:102D50001124802F0F9108950F931F93E22FF0E01D
:102D6000DF01AA0FBB1FAB5ABE4F0C910052110BD3
:102D700040039001419F300D1124EE0FFF1FEC5ACC
:102D8000FE4F40814057550B6403F001659FF00DE5
:102D900011242E0F3F1F37FF02C021583F4F220F33
:102DA000232F221F330B382F239F212D1124822FF5
:102DB0001F910F9108951F93182FE62FF0E0EE0F4B
:102DC000FF1FEC5AFE4F8081841B0E943A16282F69
:102DD000219F212D1124822F1F9108951F93182FB9
:102DE000E62FF0E0EE0FFF1FEB5AFE4F8081841BB1
:102DF0000E943A16282F219F212D1124822F1F91E6
:102E00000895FC019B01AC0197FF04C0442755279E
:102E1000481B590BBA01620F731F37FD0FC0241BEB
:102E2000350BC901A5E0880F991FAA95E1F70E940B
:102E3000343C80E2861BF7FD81950895CB0165E067
:102E4000880F991F6A95E1F7BA01621B730B0E9404
:102E5000343C80E6EFCF0F931F93CF93182FCA0116
:102E6000201BC22FC10F009729F480E877FD04C012
:102E700080E002C00E940117C81B2C2F219F212D2A
:102E80001124822FCF911F910F9108951F93CF93FB
:102E9000182FCA01C12FC21B009729F480E877FDC3
:102EA00004C080E002C00E940117982F990F990F6B
:102EB000891B8C0F282F219F212D1124822FCF9128
:102EC0001F91089546E050E06CE170E088EF94E0D7
:102ED0000C94923C46E050E06CE170E088EF94E0A6
:102EE0000C94B03C8091B70480FF08C08FE294E15D
:102EF0009F938F930E94500D0F900F9085E08093C9
:102F0000F8048FEF8093FB049FE79093FC04809379
:102F1000FD040C946A178091B70480FF65C083E1BB
:102F200094E19F938F930E94500D8091B7040F906E
:102F30000F9080FF59C08091F80483701F928F9387
:102F400082EF93E19F938F930E94500D8091B7047D
:102F50000F900F900F900F9080FF46C08091F80463
:102F6000869586951F928F9383ED93E19F938F9320
:102F70000E94500D8091B7040F900F900F900F900A
:102F800080FF32C08091FB041F928F9385EB93E109
:102F90009F938F930E94500D8091B7040F900F90D4
:102FA0000F900F9080FF20C08091FC041F928F93A0
:102FB00085E993E19F938F930E94500D8091B70410
:102FC0000F900F900F900F9080FF0EC08091FD0426
:102FD0001F928F9385E793E19F938F930E94500DEB
:102FE0000F900F900F900F900895E0913503F0919E
:102FF00036030994E62FF0E0ED5AFB4E6491E09120
:103000003103F09132030994AF92BF92CF92DF92D5
:10301000EF92FF920F931F93CF93DF936C017B018D
:10302000DC01CC918FE0C89FC02D11241FE01C0F44
:10303000B12E183410F0A7E4BA2E6091FC04669506
:103040008091FE049091FF040E943016A82ED0E0DB
:10305000CB1578F081E0173408F080E0DF91CF9154
:103060001F910F91FF90EF90DF90CF90BF90AF90A6
:103070000895FE01EE51FE4F8081F6019181892372
:1030800009F451C0CE01880F991F80509F4FFC0159
:10309000EC5AFF4F60816057770B8B5A9F4FDC01D2
:1030A0004C914052550B669F9001679F300D300D3B
:1030B0001124449FC001459F900D900D1124820F53
:1030C000931F282F8230910528F13FEF813EBEE10A
:1030D0009B0740F49C01E5E036952795EA95E1F7DA
:1030E00038E0320F01E0A02FA30FBB27BB1FFD016B
:1030F000F595E7952E2FEE9FD001EF9FB00DB00D07
:1031000011248A179B0788F43FEF3E0F301758F7BA
:103110002FEF200F0A2D8091FB04F7010995682FEE
:10312000CE010E94FA17219693CFEF3F99F301E069
:103130000E0FECCF6BE277E10C9404186DE976E1A9
:103140000C940418BF92CF92DF92EF92FF920F93EC
:103150001F93CF93DF938C017B01FC01C0818FE033
:10316000C89FC02D11244FE0D42EDC0ECD2CF7E4E7
:10317000FD1510F437E4C32E6091FC046695809130
:10318000FE049091FF040E943016B82ED0E0CC15BA
:1031900078F081E096E49D1508F480E0DF91CF910E
:1031A0001F910F91FF90EF90DF90CF90BF90089507
:1031B000FE01EE51FE4F8081F80191818923D1F00B
:1031C000CE01880F991F80509F4FFC01EB5AFF4F93
:1031D00040814052550B8C5A9F4FFC0160816057D3
:1031E000770B2B2D8091FB04F7010995682FCE01F9
:1031F0000E94FA172196CBCF66E477E10C94A218CF
:10320000BF92CF92DF92EF92FF920F931F93CF93D3
:10321000DF937C016B01FC01C0818FE0C89FC02D52
:1032200011241FE01C0F012F183408F007E46091EF
:10323000FC04669566958091FE049091FF040E94BF
:103240003016B82ED0E0C01770F081E0173408F0C7
:1032500080E0DF91CF911F910F91FF90EF90DF9071
:10326000CF90BF900895FE01EE51FE4F8081F7018F
:103270009181892351F04B2D6C2F8091FB04F60135
:103280000995682FCE010E94FA172196DCCF69E5D7
:1032900076E10C94001961E876E10C9400196FE86E
:1032A00076E10C9400196BED76E10C9400196EEE4A
:1032B00076E10C9400198F929F92AF92BF92CF92B9
:1032C000DF92EF92FF920F931F93CF93DF936C01E6
:1032D0005B01FC01C0818FE0C89FC02D11241FE05D
:1032E0001C0FE12E183410F037E4E32E6091FC043B
:1032F000669566958091FE049091FF040E943016B9
:10330000F82E80E48F0D0E943A1690E8992E980EC0
:103310008F2D0E943A1620E8822E880ED0E0CE151E
:1033200088F081E0173408F080E0DF91CF911F91A1
:103330000F91FF90EF90DF90CF90BF90AF909F9054
:103340008F900895FE01EE51FE4F8081F60191812C
:10335000892361F00F2D2C2F482D692D8091FB04BE
:10336000F5010995682FCE010E94FA172196D7CF53
:103370006CEA76E10C945B19DF92EF92FF920F9367
:103380001F93CF93DF937C01FC01C0818FE0C89F26
:10339000C02D11241FE01C0F012F183408F007E482
:1033A000D090FB04D0E0C01760F081E0173408F043
:1033B00080E0DF91CF911F910F91FF90EF90DF9010
:1033C0000895FE01EE51FE4F8081F701918189231E
:1033D00021F06D2DCE010E94FA172196E4CFCF92F5
:1033E000DF92EF92FF920F931F93CF93DF937C01B5
:1033F000FC01C0818FE0C89FC02D11241FE01C0F6D
:10340000D12E183410F087E4D82EC090FB04009120
:10341000FC040C0DD0E0CD1568F081E0173408F005
:1034200080E0DF91CF911F910F91FF90EF90DF909F
:10343000CF900895FE01EE51FE4F9081F7018181FA
:10344000892331F0602F90FF6C2DCE010E94FA1776
:103450002196E1CFDF92EF92FF920F931F93CF93CC
:10346000DF937C01FC01C0818FE0C89FC02D112437
:103470000FE00C0FD02E083410F087E4D82ED09136
:10348000FB046091FC046695669566958091FE0448
:103490009091FF040E9430160E943A16805887FDD2
:1034A0008195880F182F2D2F129F112D1124D0E0F8
:1034B000CD1560F081E0073408F080E0DF91CF9116
:1034C0001F910F91FF90EF90DF900895FE01EE5154
:1034D000FE4F8081F7019181892321F0612FCE0178
:1034E0000E94FA172196E4CFE82FF0E0ED5AFB4E48
:1034F0008491E0913303F091340309940C947B257B
:10350000089508950E94801A0C94811A08950895D0
:10351000CF93DF93FC01C0818FE0C89FC02D1124A1
:10352000D1EFDC0FC83408F0C7E46C2F8D2F0E9458
:10353000861A6C2F8D2FDF91CF910C94871ACF9321
:103540000E9473326093AC037093AD038093AE031B
:103550009093AF033091F804C32FC37019F0C32FB9
:10356000C695C695209131022130C1F0222341F049
:10357000223009F499C0233009F4A0C0CF910895F6
:10358000109232026093FE047093FF048093000552
:103590009093010581E080933102F0CF9091350244
:1035A00081E0C9130BC0832F83702091360230E075
:1035B00091E08217130609F490E0892F81708093BF
:1035C00034028091FD0490913302981729F0809382
:1035D000330280E00E94741ACD3068F4EC2FF0E0E2
:1035E000EA51F34C0C94673C80913402882349F0F3
:1035F00080E00E94741A80E004C082E392E00E949E
:10360000BC19909132029F5F90933202811148C0A1
:1036100082E08093310280913402811141C0CC2339
:1036200009F44AC00E94821A82E392E0CF910C947E
:10363000881A82E392E00E94EF19E3CF82E392E0DE
:103640000E942A1ADECF82E392E00E944719D9CF66
:1036500082E392E00E94FC18D4CF82E392E00E94C1
:103660009A18CFCF82E392E00E944B19CACF82E32F
:1036700092E00E944F19C5CF82E392E00E949E180B
:10368000C0CF82E392E00E94B819BBCF82E392E000
:103690000E945319B6CF82E392E00E945719B1CF2E
:1036A000CC2309F46BCFBECFC0933502832F837038
:1036B000809336020E94F51783E06DCF6091FE047F
:1036C0007091FF0480910005909101050E948E3257
:1036D000603171058105910508F450CF10923102D7
:1036E0004DCFE0912F03F091300309950E945430A3
:1036F000811110C08091B70480FF08C083E493E17A
:103700009F938F930E94500D0F900F900E94F9305D
:103710000E9472170E9462178091F8048C7F71F4E6
:103720008091B70480FF08C08CEE92E19F938F9345
:103730000E94500D0F900F900E9472170C948B17DF
:103740000895CF93C82F8091F80491E08927809342
:10375000F80410923102C1110E946A178091B704D7
:1037600080FF19C02091F80423708EE193E0CC23F0
:1037700011F080E293E01F922F939F938F9383EB3E
:1037800092E19F938F930E94500D0F900F900F9096
:103790000F900F900F90CF91089581E00C94A11B92
:1037A0008091F804837011F4109231028091F80432
:1037B0008C7F81608093F80408950E94D01B0C9444
:1037C0006A178091F804837011F010923102809191
:1037D000F8048C7F8093F80408950E94E11B0C94F8
:1037E0006A17CF93C62F9091F804937041F181111D
:1037F00028C094609093F80410923102C1110E9485
:103800006A178091B70480FF1AC02091F8042695AA
:1038100026958EE193E0CC2311F080E293E01F9295
:103820002F939F938F9389E992E19F938F930E94A7
:10383000500D0F900F900F900F900F900F90CF9111
:1038400008958D3010F09063D5CF880F880F982B96
:10385000D1CF682F9091F8049695969581E0890FC5
:103860008D3008F081E00C94F11B81E00C94291C50
:10387000CF93C62F9091F804937009F18093FB04C5
:1038800061110E946A178091B70480FF18C02091CF
:10389000FB048EE193E0CC2311F080E293E01F92D1
:1038A0002F939F938F938CE792E19F938F930E9426
:1038B000500D0F900F900F900F900F900F90CF9191
:1038C00008952091FB0438E0230F08F42FEF682FB0
:1038D000822F0C94381C81E00C94611C2091FB0415
:1038E00038E0231B08F420E0682F822F0C94381C4A
:1038F00081E00C946E1C60E080E50E949D1D61E0FB
:1039000080E50C949D1DCF930E94AE2360E080E57E
:103910000E94E11C60E080E50E94E11CC0E061E0E3
:103920008C2F0E945D1DCF5FC734C9F760E080E532
:103930000E94D21D61E080E5CF910C94D21D60936E
:10394000C2054093C30524E630E042E050E062EC5B
:1039500075E0880F0E943F2421E0892B09F020E0C8
:10396000822F0895EF92FF921F93CF93DF937B01F5
:10397000182F110FD0E0C0E0C093C205D701AC0FE3
:10398000BD1FE3ECF5E08D91819385E0E33DF80701
:10399000D1F724E630E041E150E062EC75E0812FA0
:1039A0000E943F24892B59F46096C03CD10521F731
:1039B00081E0DF91CF911F91FF90EF90089580E01B
:1039C000F8CF1F93CF93DF93C82FD62F45EC6EEF20
:1039D0000E949F1C40E06DEF8C2F0E949F1C10E006
:1039E00040E0612F8C2F0E949F1C1F5F1831C1F790
:1039F00045EC6EEF8C2F0E949F1C41E06DEF8C2FE9
:103A00000E949F1C10E040E0612F8C2F0E949F1CA1
:103A10001F5F103CC1F745EC6EEF8C2F0E949F1C7E
:103A200043E06DEF8C2F0E949F1C4FEF61E08C2FC5
:103A30000E949F1C80E4D89FA0011124416060E097
:103A40008C2F0E949F1C8FE39CE90197F1F700C027
:103A50000000DF91CF911F91089587349105D0F434
:103A6000880F991FFC01E55BFD4F80818370E18128
:103A7000282F30E040EC849FC00111248E5F9A4FC4
:103A8000E80FF92FF11DB497608327533C4F81E075
:103A9000F901808308951F93CF93DF93182FD0E00F
:103AA000C0E0612FCE010E942D1D2196C734D105A3
:103AB000C1F7DF91CF911F910895CF93DF93D62F58
:103AC000E82FF0E0EE0FFF1FE55BFD4F418150E076
:103AD000CA0184972081237030E0FC0197FD37965E
:103AE00043E0F595E7954A95E1F768E1629FA0010B
:103AF000639F500D11244F545C4FE40FF52FF11DBF
:103B0000C08168E070E00E94343C41E050E0BA01BE
:103B100002C0660F771F8A95E2F7CB01DD2351F0D3
:103B20008C2B808320553C4F81E0F9018083DF910D
:103B3000CF91089580958C23F4CFEF92FF920F934D
:103B40001F93CF93DF93D82FC62F062F10E0C80105
:103B500087539C4F7C01FC0180818823D1F045EC88
:103B60006EEF8D2F0E949F1C41E06DEF8D2F0E9404
:103B70009F1CF0ECCF9FB00111246E5F7A4F8D2F08
:103B80000E94B21C811105C0F801E055FC4F81E094
:103B90008083F7011082DF91CF911F910F91FF90E9
:103BA000EF900895EF92FF920F931F93CF93DF93BF
:103BB000E82EC62F062F10E000551C4FF80180811B
:103BC0008823D1F045EC6EEF8E2D0E949F1C40E0C3
:103BD0006DEF8E2D0E949F1CF8E1CF9FE001112414
:103BE000CF54DC4FF12C49916F2D8E2D0E949F1CDC
:103BF000F39488E1F812F7CFF8011082DF91CF91AA
:103C00001F910F91FF90EF9008958091CC0308953C
:103C10009C013056211540E2340748F0305E2115F2
:103C200040E1340720F0315C21153F4178F49927B9
:103C30009C01245031092432310578F02752310992
:103C400081E02E30310550F080E008958F3F9105DE
:103C500079F370F390E080E0EBCF81E008950C946D
:103C6000081ECF92DF92EF92FF92CF930E942F1EF9
:103C7000882309F441C08091CA039091CB03009737
:103C8000A9F10E947F32C091CC039C0150E040E03A
:103C900060E67AEE80E090E00E94483CCA01B901FB
:103CA00025E030E040E050E00E94483CCA01B90104
:103CB0006C1B7109810991090E941B3B27EA39E7B6
:103CC00047E45DE30E94A73B6B017C016C2F70E031
:103CD00090E080E00E941B3B9B01AC01C701B60154
:103CE0000E947E3A0E94EA3A6093CC030E946732B7
:103CF0009093CB038093CA03CF91FF90EF90DF9016
:103D0000CF900895CF92DF92EF92FF92CF93DF93FF
:103D10008091CA039091CB030E947F32893E9340E9
:103D200060F16091CC03C62FD0E0662777276C1B2B
:103D30007D0B072E000C880B990B0E941B3B27EA7A
:103D400039E747E45DE30E94A73B6B017C01BE01BC
:103D5000DD0F880B990B0E941B3B9B01AC01C70137
:103D6000B6010E947E3A0E94EA3A6093CC030E9418
:103D700067329093CB038093CA03DF91CF91FF907A
:103D8000EF90DF90CF9008950C94F80D26982E9A1E
:103D900027982F9A83B186FB882780F923B130E0DA
:103DA000220F232F221F330B90E0232B09F092E0E8
:103DB000892B8093CF030895E091CF03EE0FEE0F90
:103DC000E093CF0383B186FB222720F983B190E0F3
:103DD000880F892F881F990B009711F082E090E0DF
:103DE000822BE82BE093CF03EF70F0E0E95CFC4F0F
:103DF00080819091CE03890F8093CE0320E08430A0
:103E000054F08091CD038F5F8093CD0360E080E01C
:103E10000E94C41E21E08091CE038D3F54F4809116
:103E2000CD0381508093CD0361E080E00E94C41EE9
:103E300021E08091CE03082E000C990B64E070E025
:103E40000E94343C8093CE03822F0895CF92DF925C
:103E5000EF92FF920F931F93CF93DF936C017B013F
:103E600064E670E088E70E94B423EC0197FD12C07D
:103E700010E000E0F601E00FF11F849164E670E0CD
:103E80000E941024EC01892B29F40F5F1F4F0E159F
:103E90001F0581F70E949324CE01DF91CF911F91DE
:103EA0000F91FF90EF90DF90CF900895E6EDF5E051
:103EB00080E092E0DF019C011D9221503040E1F74B
:103EC000F093DB07E093DA078FEF9FEF9093F60311
:103ED0008093F50308950E94090E8093F10380FDFD
:103EE00013C080E88093F0030E94AE236DE070E081
:103EF0008BE596E10E94261F892B41F08FE396E126
:103F00000E94B70C80E0089580E2ECCF8091F1032D
:103F100063E070E081FD09C08CE396E10E94261FFA
:103F2000892B61F086E196E1EBCF83E196E10E9477
:103F3000261F892B19F08BEF95E1E2CF6DE070E041
:103F40008EEE95E10E94261F892B19F087ED95E1F1
:103F5000D7CF0E947332605A75418F4F9F4F609345
:103F6000D6077093D7078093D8079093D9070E94FC
:103F7000561F81E08093F4038093F3031092F203C1
:103F800008952091F00336E0839FC0011124629FC1
:103F9000800D911D1124811522E0920714F090E00C
:103FA00080E08A529A4F9093DB078093DA07089556
:103FB000CF93DF932091DA073091DB07265D354000
:103FC000A901460F571F4130524020F060E072E0D7
:103FD000621B730B4091F5035091F603FC01C9017C
:103FE000620F731FC1E0D0E08617970738F0509337
:103FF000F6034093F503DF91CF9108952491DC01FE
:10400000AA52BA4F3C91321781F02C939C01A5E043
:1040100036952795AA95E1F7DE0102C0AA0FBB1FCE
:104020002A95E2F79D014A2B532B01963196DCCF5E
:104030008091F403811103C08091F30308950E94DD
:104040007332605A75418F4F9F4F6093D6077093BC
:10405000D7078093D8079093D9078091F3038111F4
:10406000EBCF62E070E08EE795E10E94261F892B7E
:1040700029F08AE695E10E94B70CDECF81E08093BB
:10408000F303DACF2F923F925F926F927F928F92DB
:104090009F92AF92BF92CF92DF92EF92FF920F93D7
:1040A0001F93CF93DF938091F403882369F02091CD
:1040B000F5033091F6032115310531F08091F203BB
:1040C00061E070E0882399F0DF91CF911F910F910B
:1040D000FF90EF90DF90CF90BF90AF909F908F9028
:1040E0007F906F905F903F902F9008958F5F082F83
:1040F00010E01B01082E02C0220C331C0A94E2F7C8
:10410000A90142215321452B89F39091F10390FDA0
:1041100031C08295880F8076809339029801369558
:1041200027953695279520933C02815E80933A022D
:1041300010923D0224E630E047E050E067E372E091
:1041400088E70E943F24892B19F184EB95E1DF91E8
:10415000CF911F910F91FF90EF90DF90CF90BF9084
:10416000AF909F908F907F906F905F903F902F9037
:104170000C94B70C880F880F880F80933902109227
:104180003C02895F80933A0283E080933D02D2CF64
:10419000A80125E0440F551F2A95E1F78091F1030E
:1041A00080FD10C04A525A4F04E610E020E230E091
:1041B00060E488E70E946624892B09F469C08BE9D2
:1041C00095E1C5CFE0EDF3E080E2DF011D928A9535
:1041D000E9F7ABE4B3E007E413E08FE4C82E83E033
:1041E000D82E97E0592E772473948D91E801299168
:1041F0008E01240F352F311D2A523A4FE82FF0E05F
:10420000E053FC4F90E080E0652C681A872C082E64
:1042100001C0880C0A94EAF77901A12CE701B99052
:104220007E01B820662D6A196770962E062E000C46
:10423000770BDB2D01C0DD0F9A94EAF7719561953C
:1042400071096770772701C0B6946A95EAF7BD2AAD
:104250006081962E9B289082A39468E0A612DECF00
:10426000019631968830910579F6CA16DB0609F079
:10427000BCCF04E610E020E230E040ED53E060E423
:1042800088E70E946624892B19F080E895E15FCFCA
:104290000E941820E101C095D0958091F50390917E
:1042A000F603C823D923D093F603C093F5030CCFAC
:1042B0008091F3039091F403911103C091E0892759
:1042C0000895882389F062E070E088E695E10E9415
:1042D000261F892B39F083E595E10E94B70C809168
:1042E000F30308951092F3038091F303E7CF0F9344
:1042F0001F938091F403882319F160E080E00E940D
:10430000C11F0E94140E0E9442208091F303882353
:10431000B9F00E9473320091D6071091D70720910F
:10432000D8073091D907601B710B820B930B6F3F3D
:104330007F4F8F4F9F4720F41F910F910C9458216E
:104340001F910F9108950F931F93CF93DF93C42F65
:10435000D22FFC0182818823C9F04093F9030E9487
:1043600067329093F8038093F70380E28C0F8830D4
:1043700008F050C0C77081E001C0880FCA95EAF705
:10438000DF91CF911F910F910C9461271091F90348
:10439000141335C08091F7039091F8030E947F3287
:1043A000883C910560F5C0E2CD0F1D17B9F080E2A1
:1043B000810F883040F4177081E001C0880F1A9592
:1043C000EAF70E946827C83048F481E09D2F977073
:1043D00001C0880F9A95EAF70E946127802F0E94FA
:1043E0005927C830B8F4D77081E001C0880FDA953A
:1043F000EAF7DF91CF911F910F910C94682780E22B
:104400008C0F883038F4C77081E001C0880FCA95DE
:10441000EAF7EFCFDF91CF911F910F9108950F939E
:104420009C01CB01243F4CE5340759F1A8F4293D08
:10443000FCE53F0701F12A3D4CE53407D1F1283D69
:104440003C4591F406E221EE41EE68ED7CE50E94E8
:10445000A32180E00F910895263FFCE53F07E9F096
:10446000B0F0273F3C45F9F0FC018281882339F107
:104470001092F903EFCF07E225EE45EE69ED7CE5FA
:10448000E6CF06E221EE40EE64EF7CE5E0CF07E206
:1044900025EE44EE65EF7CE5DACF06E221EE42EE52
:1044A00066EF7CE5D4CF07E225EE46EE67EF7CE5CC
:1044B000CECF08E221E045EE6AED7CE5C8CF81E091
:1044C000C9CFCF93DF93EC01FB018281882309F4EC
:1044D00019C1C230FCE5DF07C0F1C6319CE5D90740
:1044E00030F09E012B5F3C452930310570F50E946C
:1044F00067309093DF048093DE04C031ECE5DE0783
:1045000009F4CFC008F05BC0C8308CE5D80709F4C7
:10451000B6C088F5C430ECE5DE0709F4A8C0C0F4E5
:10452000C2308CE5D80709F49CC08091DE0482601B
:10453000C330DC4509F498C08091DE049091DF041B
:104540000E9475300E94DE2980E0DF91CF910895AE
:104550008091DE048061C630ECE5DE0709F484C09A
:104560008091DE048860C730DC4508F47DC080910E
:10457000DE04806279C0CC308CE5D80709F489C0AC
:1045800070F48091DE048C60CA30ECE5DE0709F43B
:104590006BC008F478C08091DE048E7F65C0CE3099
:1045A0008CE5D80709F479C08091DE048B7FCF3089
:1045B000DC4508F459C08091DE048F7E55C0CC3FA5
:1045C000ECE5DE0709F457C030F5C3318CE5D807B8
:1045D00009F46FC078F4C131ECE5DE0709F465C079
:1045E000C231DC4509F0A8CF0E94DE298091DE04AB
:1045F0008F773AC0C5318CE5D80709F462C008F45A
:1046000076C08091DF048160CB3FDC4509F094CF18
:104610008093DF0491CFC115FDE5DF0709F44DC09C
:1046200088F48091DF048D7FCE3F9CE5D90781F32C
:104630008091DF048E7FCF3FDC4550F38091DF0413
:104640008360E6CFC230FDE5DF0709F459C008F406
:1046500044C080E0C330DD4509F06ECF0E94FB30DE
:104660006BCF8091DE0481608093DE0465CF809102
:10467000DE048460F9CF8091DF048260C9CF80912D
:10468000DE048064F1CF0E94DE298091DE04806820
:10469000EBCF8091DE048D7FE7CF8091DE04877FB2
:1046A000E3CF8091DE048F7DDFCF8091DE048F7BAE
:1046B000DBCF8091DE04837FD7CF8091DF048C7FB6
:1046C000A7CF8091DE0482FB992790F921E0922701
:1046D00090FB82F990FB83F9C7CF8091DF04982F7C
:1046E000909591708E7F892B90FB81F991CF0E94DC
:1046F000DE299091DE04892F97FB87F98058B4CF8B
:1047000081E0ACCF81E021CFCF93DF93EB01863105
:104710009C4511F50E94912F9A81992399F08A7AEC
:1047200091E009F490E09093FA03811109C089E2C5
:104730000E94382F0E94E12F80E0DF91CF910895F1
:1047400085E3F6CF8091FA03811104C089E20E94CB
:104750003F2FF0CF85E3FBCF81E0EFCF1092B90080
:104760008CE08093B8000895EF92FF920F931F930F
:10477000CF93DF93182FEB011092BC0084EA809353
:10478000BC000E9467327C018091BC0087FF27C07B
:104790008091B900887F883029F08091B900887FA6
:1047A0008031D9F51093BB0084E88093BC000E944F
:1047B00067328C018091BC0087FF24C02091B90032
:1047C000287F90E080E02831B1F081E090E0203453
:1047D00011F490E080E09195819591090CC0CF3F54
:1047E000DC0791F20E9467328E199F098C179D0792
:1047F00058F28EEF9FEFDF91CF911F910F91FF90B5
:10480000EF900895CF3FDC07A9F20E946732801B2A
:10481000910B8C179D0770F2ECCF8FEF9FEFEBCFD2
:104820000F931F93CF93DF93EB018093BB0084E83A
:104830008093BC000E9467328C018091BC0087FF8E
:1048400011C02091B900287F81E090E0283211F456
:1048500090E080E0919581959109DF91CF911F9132
:104860000F910895CF3FDC0741F30E946732801B10
:10487000910B8C179D0708F38EEF9FEFEECFCF9231
:10488000DF92EF92FF920F931F93CF93DF936B0111
:104890008A017901B9010E94B423E6010C0D1D1DA6
:1048A000C017D10761F424E92093BC00DF91CF91B8
:1048B0001F910F91FF90EF90DF90CF90089597FD9B
:1048C000F2CFB70189910E941024EACFCF92DF92F4
:1048D000EF92FF920F931F93CF93DF93C62F6A013E
:1048E0007901B8010E94B42397FD0CC0B8018C2F48
:1048F0000E941024E601EC0CFD1CCE15DF0511F022
:1049000097FF0CC024E92093BC00DF91CF911F9149
:104910000F91FF90EF90DF90CF900895B8018991AB
:104920000E941024EACF84E98093BC0008959093FC
:1049300000048093FF030895E091FF03F0910004C9
:10494000309721F00190F081E02D099480E00895E6
:10495000EF92FF920F931F93CF93DF93EC01E091BF
:10496000FF03F0910004309709F446C080914A0299
:10497000882341F08091DE0487FF04C08881898309
:1049800085E088830280F381E02DCE010995809136
:10499000B70482FF31C080FF04C080E796E10E9427
:1049A000B70C10E000E08AE6E82E86E1F82E809150
:1049B000B70480FF0EC0FE01E00FF11F80811F923F
:1049C0008F93FF92EF920E94500D0F900F900F90D7
:1049D0000F900F5F1F4F0830110549F78091B70402
:1049E00080FF0AC088E696E1DF91CF911F910F9179
:1049F000FF90EF900C94B70CDF91CF911F910F9126
:104A0000FF90EF900895E091FF03F091000430973C
:104A100039F022E0DC012C930480F581E02D09942B
:104A200008952091FD033091FE032817390771F096
:104A30009093FE038093FD03E091FF03F091000447
:104A4000309721F00680F781E02D09940895209198
:104A5000FB033091FC032817390771F09093FC0396
:104A60008093FB03E091FF03F0910004309721F065
:104A70000084F185E02D099408950E9473326093BB
:104A8000160470931704809318049093190460938C
:104A900012047093130480931404909315040895E2
:104AA0000E94733260931604709317048093180465
:104AB0009093190460930E0470930F048093100474
:104AC00090931104089585B7806885BF85B7806885
:104AD00085BF0895089508950C946A2508950C944F
:104AE0006E250E94632582EC94E30E94F2320E94BC
:104AF0006B250C946C2581E008950C947B2508951A
:104B000008950E947F250C9480250E945E320E94A9
:104B1000041280E00E946B1F0E94C61EEEEDF4E0BE
:104B20008081806880838091DE049091DF040E9400
:104B300075300C946F25CF93C82F8091B70482FFF6
:104B40001EC080FF1CC089E896E10E94B70C8091CE
:104B5000B70480FF14C01F92CF9384E896E19F931F
:104B60008F930E94500D8091B7040F900F900F907B
:104B70000F9080FF04C082E896E10E94B70C8C2F52
:104B8000CF910C943C0F7F928F929F92AF92BF92E5
:104B9000CF92DF92EF92FF920F931F93CF93DF9309
:104BA000CDB7DEB72A970FB6F894DEBF0FBECDBFE4
:104BB0000E943912E82E81110E943D2552E0852E77
:104BC00054E0952E10E000E0702E802F0E94951189
:104BD0005C01F401C190D1904F01C816D906B1F41F
:104BE0000F5F1F4F0630110579F78FEF89838A8396
:104BF0001B820E9467328160782F9D838C8349815C
:104C00005A816B818D810E948E263DC08091B704B0
:104C100081FD0E949E11C6018A259B25F12CCC2482
:104C2000C394D12C9C012C213D21232B09F45BC082
:104C30000E947D2595012C213D21BB24B394232B7B
:104C400009F4B12C882379F0FE827F82B8860E9415
:104C500067328160782F9A8789874E815F81688566
:104C60008A850E948E26000F111FF801EE5FFB4F10
:104C700080819181C826D926D182C0824B2D6F2D8B
:104C8000872D0E947E1A0E949F1A0E94DC1E182FF8
:104C900081110E9450250E947721E11001C011115D
:104CA0000E9418200E94E6140E949C249091010406
:104CB000891701F10E949C24809301042A960FB663
:104CC000F894DEBF0FBECDBFDF91CF911F910F9142
:104CD000FF90EF90DF90CF90BF90AF909F908F901C
:104CE0007F900C949B25F394CC0CDD1CFEE0FF120E
:104CF00099CF76CF2A960FB6F894DEBF0FBECDBF00
:104D0000DF91CF911F910F91FF90EF90DF90CF90A7
:104D1000BF90AF909F908F907F900895DF92EF9219
:104D2000FF920F931F93CF93DF93CDB7DEB72B97EF
:104D30000FB6F894DEBF0FBECDBF7A878B87F42EF7
:104D4000052F162FE72ED82E61110E94B12F1E823B
:104D50001D827E2DEC82DD824F2D502F612F8D2DF7
:104D60009E812B960FB6F894DEBF0FBECDBFDF91AC
:104D7000CF911F910F91FF90EF90DF900C94542CE6
:104D8000FC01808191810C940A2FCF93C82F882336
:104D900009F447C08CEF8C0F813AA0F46C2F8091FE
:104DA0003E0290913F020E941431882329F08C2FFB
:104DB0000E943F2F0E94E12F8C2F0E94382FCF910D
:104DC0000C94E12F80E28C0F883048F4C77081E0AA
:104DD00001C0880FCA95EAF70E94942FF0CFEBE547
:104DE000EC0FE33040F4F0E0E358FC4F808190E0BA
:104DF000CF910C941125E8E5EC0FE73150F4F0E089
:104E0000EE0FFF1FE15BFC4F80819181CF910C94ED
:104E10002725CD3E30F08C2F0E947613CF910C9435
:104E20004914CF910895882361F19CEF980F913A2E
:104E300020F40E943F2F0C94E12F90E2980F9830BD
:104E400050F4877091E001C0990F8A95EAF7892F95
:104E50000E949A2FF0CF9BE5980F933020F490E0BA
:104E600080E00C94112598E5980F973120F490E09C
:104E700080E00C9427258D3E20F00E94D0130C94E6
:104E8000491408951F93CF93DF93182FEB010E94CD
:104E9000C526209731F4812FDF91CF911F910C947B
:104EA00013278FE99FE00197F1F700C000002197D9
:104EB000F0CF6AE070E0893311F460E570E00C94A3
:104EC0004227882321F00E94942F0C94E12F08950B
:104ED000882321F00E949A2F0C94E12F0895BF920D
:104EE000CF92DF92EF92FF920F931F93CF93DF93B6
:104EF0006C01D62FC72FFC011281058102950F701E
:104F00000E94562FE82E8823A1F0E12E112389F06C
:104F10008C2F807F803429F080E28D0FE12C883047
:104F200040F082E00E9432300E94562F91E0E82E3D
:104F3000E926BC2EB2949FE0B922EB2DF0E0ED50B3
:104F4000F34C0C94673C0C2F0F70C07F11F002954E
:104F5000007F1123A9F0002359F080E28D0F8830E3
:104F600010F0D11109C0802F0E94942F0E94E12FD0
:104F70008D2F0E94C52614C0802F0E94A42FF6CF2B
:104F80008D2F0E941327002359F080E28D0F883067
:104F900010F0D1112BC0802F0E949A2F0E94E12F78
:104FA000EB2DE850FF0B349720F40E949C240E94C4
:104FB0003C0FEE2009F4A3C10E94522F80FD9FC137
:104FC000F60112820E944C2F0E94D82DC6010E9429
:104FD000A0290E944C2FDF91CF911F910F91FF903C
:104FE000EF90DF90CF90BF900C94F92D802F0E940E
:104FF000AA2FD4CFFC2FFF70FF2EC07FC03219F034
:10500000F29480EFF822DD2369F0D13049F11123C9
:1050100091F1002351F1F601858180FFA9CF8F70B6
:10502000858323C0112381F0011106C00E94C42F83
:105030008F290E946127B4CF0130C1F70E94C42F8D
:105040008F290E94CA2FACCF011106C00E94D72F12
:105050008F2D0E946827A4CF013009F4A1CFF6CF8D
:10506000112329F0063008F09BCF8F2DE2CF0530B9
:1050700008F096CFEDCF002359F3D93309F027C1BB
:10508000FFEF27EE33E0F15020403040E1F700C061
:1050900000008D2F0E94132783CF8C2F8695869535
:1050A000837069F0813009F07BCF8D2F9C2F937036
:1050B000111102C090E080E00E94272571CF8D2F52
:1050C0009C2F9370111102C090E080E00E94112586
:1050D00067CF8D2F112329F00E9476130E94491467
:1050E0005FCF0E94D013FACF8C2F837009F041C09C
:1050F000111156CF4D2F429546954770440F440FDE
:105100000D2F0F7010E030E020E0042E04C0000FDF
:10511000111F221F331F0A94D2F760E070E0CB0109
:10512000D4FF0FC06FE070E080E090E004C0660F35
:10513000771F881F991F4A95D2F7609570958095C3
:105140009095C695C695C370602B712B822B932BBF
:10515000C23049F058F4C13019F00E948A2D20CF96
:105160000E94782D1DCF0E949C2D1ACF0E94762D73
:1051700017CF8695112311F08C2F8170882309F4A5
:105180000FCF4D2F429546954770440F440F0D2F7A
:105190000F7010E030E020E0042E04C0000F111F5B
:1051A000221F331F0A94D2F760E070E0CB01D4FFD6
:1051B0000FC06FE070E080E090E004C0660F771FE2
:1051C000881F991F4A95D2F76095709580959095A4
:1051D000C695C695C370602B712B822B932BC23062
:1051E00049F058F4C13019F00E944F2ED9CE0E94D8
:1051F0003D2ED6CE0E94612ED3CE0E94B22DD0CEAF
:10520000CF70112329F08C2F0E94D82D8D2F11CF14
:105210008D2F0E9468278C2F0E94F92DC1CED23F7E
:1052200089F160F4D03FC9F0D13F29F1112309F48D
:1052300042C001119DCE8C2F8F7121C0D33F39F117
:10524000D43FA1F7112369F1CF718C2F0E94D82D83
:1052500063E08C2F0E941730A3CE112341F005305C
:1052600008F09ECE8C2F8F710E941C2E99CE063096
:1052700008F096CEF7CF8C2F8F71112369F20E9420
:10528000D82D8ECE8C2F8F711123C9F3C5CF11234A
:1052900029F08C2F8F710E94C32D82CE0E94BE2DCB
:1052A0007FCE81E00E943230023008F479CE82E075
:1052B0000E94323075CE002379F0D93341F49FEF4C
:1052C000E7EEF3E09150E040F040E1F7E0CE8FE30D
:1052D0009CE90197F1F7DBCE8C2F8F719DCF4C2F7E
:1052E0004F706D2FC6010E94440F0E94EE2C58CEC5
:1052F0004C2F4F706D2FC6010E94470F51CEDF918A
:10530000CF911F910F91FF90EF90DF90CF90BF90C2
:1053100008950F931F93CF93DF93EC0168817981F8
:105320008A810E94142F8C010E94732E0E94752D79
:10533000B801CE01DF91CF911F910F910C946F278F
:10534000CF93DF93EC018B819C81892B29F088819D
:10535000998189238F3F59F4DF91CF910895CE0130
:105360000E948929CE01DF91CF910C945D0ECE0170
:105370000E94860E8111F3CF0E94562F882361F37D
:105380008A81882349F382E0DF91CF910C943230F7
:1053900090E080E00E94112590E080E00E942725A7
:1053A0000E94B12F0E94C12F0E94E12F0E94F2158E
:1053B0000C9449140E94462F0C94C8290E94A12FD6
:1053C0000C94DA29E92FE295EF70E250EE3070F498
:1053D000F0E0ED5FF24C0C94673C803F19F020F454
:1053E000883E20F481E00895843FE1F380E0089551
:1053F000883EC0F3813FD1F7F5CF93FB882780F932
:1054000008950E940A2F0C94E229CF93DF9300D0D5
:1054100000D00F92CDB7DEB70F900F900F900F9086
:105420000F90DF91CF910895CF93DF9300D000D0FC
:1054300000D0CDB7DEB726960FB6F894DEBF0FBE0C
:10544000CDBFDF91CF9108951F93CF93DF93C0918C
:105450001B0416E080911C048C1304C0DF91CF91D3
:105460001F910895D0E01C9FF0011D9FF00D1124A5
:10547000E35EFB4F4081518162817381848195811C
:105480000E94142A2196C770E5CF40914D04509197
:105490004E0460914F04709150048091510490919A
:1054A00052040C94142A1F93CF93DF9380915204DB
:1054B000807FA9F480914F04882389F080911B0498
:1054C000C0911C0460914D0470914E04A091500451
:1054D000B0915104D62FD72316E0C81304C0DF9132
:1054E000CF911F91089590E0109711F0DF3F19F4CC
:1054F00001968770F2CF189F9001199F300D1124EB
:10550000F901E35EFB4F41814713F2CF408146131F
:10551000EFCF42814111ECCF438154814A1B5B0B99
:10552000483C510528F7809152048F708061809328
:105530005204F901EE5DFB4F80818F7080618083A2
:105540008DE494E00E94A029DF91CF911F910C94EB
:10555000242AAF92BF92CF92DF92EF92FF920F93E5
:105560001F93CF93DF93CDB7DEB761970FB6F89453
:10557000DEBF0FBECDBF8C0185E0F801DE011D96B8
:1055800001900D928A95E1F7F80140815181E28006
:105590008DE4C82E84E0D82E60915004709151049F
:1055A0006115710509F461C190914D0420914E047B
:1055B000892F82238F3F09F458C1A380B480F090D3
:1055C0004F04F501E61BF70BFF2009F4FCC08091A6
:1055D0005204382F307FE83CF10508F0B2C0311199
:1055E00079C0FE2C251323C0941321C0E1101FC0E5
:1055F0008F708061809352040E94452AC6010E94E8
:10560000A02980915204F80185838F2D61960FB6F1
:10561000F894DEBF0FBECDBFDF91CF911F910F91E8
:10562000FF90EF90DF90CF90BF90AF900895AB28A0
:1056300029F0842F85238F3F09F033C180E0F82FB4
:10564000F170DF2E80FF3CC080911B0420911C0470
:1056500036E0821315C04D875E878D859E850E943A
:105660000A2F292F22952F702230F0F0243018F5C0
:105670009F70F1F0F8019581907FD1F4D12C1EC07C
:1056800090E0389FF001399FF00D1124E35EFB4F4D
:105690006181651306C06081641303C062816E116D
:1056A0000FC001968770D5CF9F7011F0882331F31A
:1056B000805E883018F3C8010E94A029FD2CA5CF78
:1056C000EE2009F4A2CF80915204816080935204AD
:1056D000F12C9BCF251306C0941304C0F801EE20D3
:1056E00009F48DC04D875E878D859E850E94012AB5
:1056F000882319F1EE2009F180915204803270F074
:1057000020914D0430914E0438872F831986BB8633
:10571000AA868C87CE0107960E94A02986E0F80110
:10572000ADE4B4E001900D928A95E1F70E94532A0E
:105730000E94452AFF24F39468CFC8010E94A02943
:10574000F9CF311113C07A2DB98AA88A6E2D8989B3
:105750000E94052A8DE494E00E94A02986E0F601CB
:1057600011928A95E9F70E94452AB2CF25130FC0FE
:1057700094130DC0E1100BC0F8018583C8010E948D
:10578000A02986E0F60111928A95E9F73ECF4D8770
:105790005E878D859E850E94012A882371F2EE2006
:1057A00061F280915204803208F4B8CF20914D0408
:1057B00030914E043A8329831B82BD82AC828E8352
:1057C000CE010196A9CFE83CF10508F041C0FE2CBE
:1057D000EE2009F4B2CF25132AC0941328C080917B
:1057E000520480FD1BC0982F907FC1F0F801858383
:1057F000903F31F0982F907F905F8F70892B858339
:10580000C8010E94A02986E0F801ADE4B4E001904F
:105810000D928A95E1F70E94452AF7CE86E0F801BD
:10582000ADE4B4E001900D928A95E1F7EECE4D879C
:105830005E878D859E850E94012A81116FCF8091A0
:105840005204816080935204C8010E94A029DDCED9
:105850007A2DB98AA88A6E2D89890E94052A86E048
:10586000F60111928A95E9F7D6CFEE2009F465CFBB
:105870004D875E878D859E850E94012AF82E88239C
:1058800009F45BCF86E0F801ADE4B4E001900D923D
:105890008A95E1F78DE494E00E94C0260E94532A85
:1058A000BACF81E08E25CBCE1F93CF93DF93CDB7B8
:1058B000DEB72C970FB6F894DEBF0FBECDBF4F8377
:1058C000588769877A878B879C87CE0107960E94C5
:1058D000A92A882369F08A859B85892B39F04F8115
:1058E0005885842F85238F3F09F071C016E05FC073
:1058F00086E0FE013796DE01119601900D928A95A1
:10590000E1F78A859B85892B89F38F819885892387
:105910008F3F61F320911C0430E0C901019687702C
:10592000992740911B044817190671F40E94DE293B
:1059300010921C0410921B0486E0EDE4F4E0DF01F9
:105940001D928A95E9F7D2CF96E0929FD001939F5E
:10595000B00D1124A35EBB4FFE01319601900D9254
:105960009A95E1F780931C040E94242ABFCF819F5F
:10597000C0011124835E9B4F0E94A92A8823E9F06D
:10598000E0911B041E9FF0011124E35EFB4F408158
:10599000518162817381848195810E94142A809152
:1059A0001B0490E001968770992780931B048091D7
:1059B0001B0490911C048913DACF2C960FB6F8942F
:1059C000DEBF0FBECDBFDF91CF911F9108956985D6
:1059D0007A858B859C850E94142A88CFEF92FF924E
:1059E0000F931F93CF93DF938C01892B81F0F12CC0
:1059F000EE24E394E8012196F8018491843770F451
:105A0000843008F05FC08130B1F08230A1F1DF91C5
:105A1000CF911F910F91FF90EF900895853709F472
:105A20004CC008F43DC09CE7980F903780F78F7703
:105A30000E94132749C00E5F1F4FFE01849190E220
:105A4000980F983060F48770FE2D01C0FF0F8A9583
:105A5000EAF78F2F0E94B42F0E94E12F02C00E940C
:105A6000C5268F2D815030F2EFE9FFE03197F1F735
:105A700000C00000F7CF0E5F1F4FFE01849190E23F
:105A8000980F983050F48770FE2D01C0FF0F8A9553
:105A9000EAF78F2F0E94BA2FDFCF0E941327E1CFA2
:105AA0000E5F1F4FFE01C491C150D8F28FE99FE0F5
:105AB0000197F1F700C00000F7CF0E5F1F4FFE0106
:105AC000F490CFCF0E94C5268E01CBCF08950C94C1
:105AD000662D0E94672D60938E0470938F048093CF
